:100000000C945D000C9485000C9485000C94850084
:100010000C9485000C9485000C9485000C9485004C
:100020000C9485000C9485000C9485000C9485003C
:100030000C9485000C9485000C9485000C9485002C
:100040000C946F010C9485000C942E030C94710396
:100050000C9485000C9485000C9485000C9485000C
:100060000C9485000C94850000000007000201003C
:100070000003040600000000000000000102040864
:100080001020408001020408102001020408102002
:10009000040404040404040402020202020203032E
:1000A0000303030300000000250028002B000000CC
:1000B0000000240027002A002D0411241FBECFEFCA
:1000C000D8E0DEBFCDBF11E0A0E0B1E0E4ECF9E0A4
:1000D00002C005900D92A431B107D9F721E0A4E147
:1000E000B1E001C01D92A73CB207E1F710E0CAEBF6
:1000F000D0E004C02297FE010E94DC04C83BD10777
:10010000C9F70E9483040C94E0040C9400000F9340
:100110001F93CF93DF9302E011E061E0F80180814B
:100120000E940001C0E0D1E061E088810E940001EE
:1001300060E070E0F80180810E943D0260E070E0C4
:1001400088810E943D0240E855E260E070E08DE168
:1001500091E0DF91CF911F910F910C94AC030F931D
:100160001F93CF93DF9302E011E06FEF70E0F8018F
:1001700080810E943D02C0E0D1E06FEF70E0888195
:100180000E943D0261E070E080E090E00E94DC01AE
:1001900060E070E0F80180810E943D0260E070E064
:1001A0008881DF91CF911F910F910C943D02833094
:1001B00081F028F4813099F08230A1F008958630E2
:1001C000A9F08730B9F08430D1F4809180008F7D20
:1001D00003C0809180008F7780938000089584B55C
:1001E0008F7702C084B58F7D84BD08958091B00063
:1001F0008F7703C08091B0008F7D8093B000089509
:10020000CF93DF9390E0FC01E458FF4F2491FC0171
:10021000E057FF4F8491882349F190E0880F991FA0
:10022000FC01E255FF4FA591B4918C559F4FFC0105
:10023000C591D4919FB7611108C0F8948C91209515
:1002400082238C93888182230AC0623051F4F8940F
:100250008C91322F309583238C938881822B8883D5
:1002600004C0F8948C91822B8C939FBFDF91CF9127
:1002700008950F931F93CF93DF931F92CDB7DEB7EF
:10028000282F30E0F901E859FF4F8491F901E45833
:10029000FF4F1491F901E057FF4F04910023C9F07B
:1002A000882321F069830E94D7006981E02FF0E064
:1002B000EE0FFF1FEC55FF4FA591B4919FB7F89437
:1002C0008C91611103C01095812301C0812B8C9307
:1002D0009FBF0F90DF91CF911F910F9108951F92B3
:1002E0000F920FB60F9211242F933F938F939F93EA
:1002F000AF93BF938091150190911601A0911701C2
:10030000B09118013091140123E0230F2D3720F410
:100310000196A11DB11D05C026E8230F0296A11D5F
:10032000B11D209314018093150190931601A093A1
:100330001701B09318018091190190911A01A091B1
:100340001B01B0911C010196A11DB11D80931901E3
:1003500090931A01A0931B01B0931C01BF91AF9120
:100360009F918F913F912F910F900FBE0F901F90F3
:1003700018953FB7F8948091190190911A01A091B6
:100380001B01B0911C0126B5A89B05C02F3F19F099
:100390000196A11DB11D3FBF6627782F892F9A2F87
:1003A000620F711D811D911D42E0660F771F881F2E
:1003B000991F4A95D1F70895CF92DF92EF92FF925D
:1003C000CF93DF936B017C010E94B901EB01C11453
:1003D000D104E104F10479F00E94B9016C1B7D0B9A
:1003E000683E7340A0F381E0C81AD108E108F10823
:1003F000C851DC4FECCFDF91CF91FF90EF90DF90B1
:10040000CF900895789484B5826084BD84B581606E
:1004100084BD85B5826085BD85B5816085BDEEE60C
:10042000F0E0808181608083E1E8F0E010828081EB
:1004300082608083808181608083E0E8F0E0808159
:1004400081608083E1EBF0E0808184608083E0EB79
:10045000F0E0808181608083EAE7F0E08081846061
:1004600080838081826080838081816080838081BD
:10047000806880831092C10008951F93CF93DF930B
:10048000182FEB0161E00E940001209711F460E059
:1004900004C0CF3FD10539F461E0812FDF91CF91C6
:1004A0001F910C943901E12FF0E0E859FF4FE491DE
:1004B000E330F9F048F4E130B9F0E230A1F584B569
:1004C000806284BDC8BD34C0E630E9F0E73019F180
:1004D000E43049F580918000806280938000D09361
:1004E0008B00C0938A0024C084B5806884BDC7BDDA
:1004F0001FC080918000806880938000D093890025
:10050000C093880015C08091B00080688093B000CF
:10051000C093B3000DC08091B00080628093B000A2
:10052000C093B40005C0C038D1050CF0B5CFAFCF33
:10053000DF91CF911F910895FC0124853585F90144
:10054000E05CFF4F80819181329620813181821B56
:10055000930B8F7399270895FC0184859585FC0181
:10056000E05CFF4F408151813296208131814217FA
:10057000530741F00190F081E02DE80FF91F8081D1
:1005800090E008958FEF9FEF0895FC018485958595
:10059000FC01E05CFF4F4081518132962081318126
:1005A0004217530779F0A081B181A80FB91F8C9130
:1005B000208131812F5F3F4F2F7333273183208379
:1005C00090E008958FEF9FEF0895FC0181A18823AB
:1005D00029F0A489B5898C9186FFFBCF11A20895DB
:1005E000CF93DF93FC0126853785D901A05CBF4FEF
:1005F0008D919C91119701968F739927E901CE5B9C
:10060000DF4F4881598184179507D9F30D90BC912C
:10061000A02DA20FB31F6C93A685B785A05CBF4F1A
:1006200011969C938E93A689B7892C9181E090E0D6
:10063000078C02C0880F991F0A94E2F7282B2C938D
:1006400081E081A30488F589E02D80818064808326
:1006500081E090E0DF91CF91089508951F920F926D
:100660000FB60F9211242F933F934F938F939F9325
:10067000EF93FF938091C00082FD1CC04091C600A3
:100680008091C3019091C40101968F7399272091A5
:10069000C5013091C6018217930771F0E091C30143
:1006A000F091C401ED57FE4F40839093C4018093B5
:1006B000C30102C08091C600FF91EF919F918F917D
:1006C0004F913F912F910F900FBE0F901F90189553
:1006D0008DE191E00E949C02892B11F00C942D0376
:1006E00008951F920F920FB60F9211242F933F93EC
:1006F0008F939F93EF93FF9320917F01309180011F
:1007000080918101909182012817390731F48091FD
:10071000C1008F7D8093C10014C0E0918101F091F0
:100720008201E15CFE4F20818091810190918201E4
:1007300001968F7399279093820180938101209372
:10074000C600FF91EF919F918F913F912F910F9054
:100750000FBE0F901F901895CF92DF92EF92FF92ED
:10076000CF93DF93EC016A017B01411581EE5807BD
:1007700061057105F9F0EC89FD8981E090E008A040
:1007800002C0880F991F0A94E2F7808360E079E045
:100790008DE390E0A70196010E94B8042150310931
:1007A000410951095695479537952795211580E1BF
:1007B000380798F0EC89FD89108260E874E88EE1D2
:1007C00090E0A70196010E94B80421503109410927
:1007D00051095695479537952795E889F9893083CA
:1007E000EA89FB89208319A2EE89FF89408181E093
:1007F00090E09C010C8C02C0220F331F0A94E2F798
:10080000422B4083EE89FF8940819C010D8C02C000
:10081000220F331F0A94E2F7422B4083EE89FF89AF
:1008200040819C010E8C02C0220F331F0A94E2F714
:10083000422B4083EE89FF8920810F8C02C0880FF4
:10084000991F0A94E2F7809582238083DF91CF91EC
:10085000FF90EF90DF90CF900895109220011092BA
:100860001F0188EE93E0A0E0B0E080932101909317
:100870002201A0932301B093240188E091E090939A
:100880001E0180931D0183E891E090932A018093DB
:1008900029018FE391E090932C0180932B0185EC4B
:1008A00090E090932E0180932D0184EC90E0909342
:1008B000300180932F0180EC90E09093320180937F
:1008C000310181EC90E0909334018093330182EC0C
:1008D00090E0909336018093350186EC90E0909300
:1008E00038018093370184E08093390183E080935D
:1008F0003A0187E080933B0185E080933C0181E0F1
:1009000080933D0108950E9402020E948700C8E67C
:10091000D3E00E94AF002097E1F30E946803F9CF73
:10092000CF92DF92EF92FF920F931F93CF93DF93BB
:100930006C017A01EB01E60EF71E00E010E0CE1527
:10094000DF0561F06991D601ED91FC910190F08194
:10095000E02DC6010995080F191FF1CFC801DF91DD
:10096000CF911F910F91FF90EF90DF90CF9008955E
:10097000A1E21A2EAA1BBB1BFD010DC0AA1FBB1FA3
:10098000EE1FFF1FA217B307E407F50720F0A21B15
:10099000B30BE40BF50B661F771F881F991F1A9482
:1009A00069F760957095809590959B01AC01BD01AC
:1009B000CF010895EE0FFF1F0590F491E02D0994EB
:0409C000F894FFCFD9
:1009C4000A000B0000000000F00290049C02C50223
:0409D400AC02E5028A
:00000001FF
